:100000000C94FD030C941A040C941A040C941A0416
:100010000C94D8050C941A040C941A040C941A0429
:100020000C941A040C941A040C941A040C941A04D8
:100030000C941A040C941A040C941A040C941A04C8
:100040000C941A040C941A040C941A040C941A04B8
:100050000C941A040C941A040C941A040C941A04A8
:100060000C941A040C941A0404E010021C071237B2
:1000700032292D29252B3900010310E110031D071A
:10008000062E2C292D2E2E373F0000021013800A39
:10009000298064022A040000007F2B040000009FD6
:1000A0000F0180961180FFB103012C2DB203012CAA
:1000B0002DB306012C2D012C2DB40107C003A20283
:1000C00084C101C5C2020A00C3028A2AC4028AEEA0
:1000D000C5010E20003601C83A01057B03E200206D
:1000E0007E16000000000500010000020D0602F46B
:1000F000040005040601F407000A0C0A00F51600C6
:1001000009100A01F32800100D1001F442000B0D34
:100110000C01F4540002040401F45500041106011A
:10012000F45E0004110601F4670005050701F46B95
:100130000006080B03F971000204050200720004B6
:10014000010601FC730002010501007400050D05A4
:1001500000F47D00080D0A01F48A00040D0A03F47E
:100160009100090D0A01F4A000080D0A01F4AD0088
:10017000070D0A02F4B900090D0A01F4C800090DBF
:100180000A01F4D700080D0A00F4E400090D0A0181
:10019000F4F300080D0A01F40001020A0501F70357
:1001A00001030C0501F8080109090B01F813010905
:1001B000040B01FB180109090B01F82301090D0AC1
:1001C00001F4320111101201F454010C0D0C00F471
:1001D00068010B0D0C01F47A010B0D0D01F48C017B
:1001E0000B0D0D01F49E01090D0B01F4AD01080D7D
:1001F0000B01F4BA010C0D0E01F4CE010B0D0D0133
:10020000F4E001020D0502F4E401070D0A01F4F027
:10021000010B0D0C01F40202080D0A01F40F020D8E
:100220000D0F01F425020B0D0D01F437020D0D0E1B
:1002300001F44D020A0D0C01F45E020D0E0E01F4E4
:1002400075020C0D0D01F489020A0D0C01F49A02DD
:10025000090D0B01F4A9020B0D0D01F4BB020B0DEE
:100260000C00F4CD02110D1100F4E9020C0D0C008C
:10027000F4FD020C0D0C00F411030A0D0B01F42225
:100280000303110501F42903050D0500F4320303EE
:10029000110500F4390307070801F440030A010AB5
:1002A0000003420304030500F44403090A0A01F7AA
:1002B0005003090D0A01F45F03080A0901F76903F5
:1002C000080D0A01F47603080A0A01F78003040DF9
:1002D0000501F48703080E0A01F79503080D0A01CA
:1002E000F4A203020D0401F4A60304110400F4AF08
:1002F00003090D0901F4BE03020D0401F4C2030D4C
:100300000A0F01F7D303080A0A01F7DD03080A0AF6
:1003100001F7E703090D0A01F7F603080D0A01F7D3
:100320000304050A0601F70A04080A0901F7140480
:10033000040C0501F51A04080A0A01F72404090A45
:100340000900F730040D0A0D00F74104080A0900FE
:10035000F74B04090E0900F75B04070A0901F7646B
:100360000404110601F46D0402110402F472040481
:10037000110601F47B0407030901F9FFFFF8C0DE51
:10038000F72009864191FF1304C320C8FF898261C9
:1003900090101F14DA3D1E8340781708F47A353325
:1003A000F040203810EC20C620C640C6406C803992
:1003B00000013C0277026304630477083C0E066088
:1003C000CC1981E0180F0336C2D8730631E3C4FE9E
:1003D00013266CCCCCC46623108C46633333326650
:1003E0004C80257EA50030C33F30C30CD6F0C0083A
:1003F00044211084421108003C6642C3C3C3C3C3F6
:10040000C3C342663C113F33333333303E31B0789F
:1004100030181C1C1C1818100807F83C66C3C303CE
:10042000061C0703C3C3663C0C187162C9A346FED1
:10043000183060C07F2010080807F38C030180F09B
:100440006C63E01E3198780C06F38D83C1E0D06CAC
:1004500063E0FF030206040C081818181030303E41
:1004600031B0783C1B18F8C6C1E0F06C63E03C6624
:10047000C2C3C3C3673B0303C2663CC00030C000B5
:100480000064A00081C78E0C0780700E0180FF8081
:10049000001FF000700E01C0183871C080003E319E
:1004A000B0783018183818180C0000018003F006D6
:1004B0000E06018600661DBB31CF18C79863CC318C
:1004C000E611B399CCF7860001800070400FE0067A
:1004D00000F00F009019819810830C3FC2046066F1
:1004E00006C030FF183303606C0D833FC606C0782A
:1004F0000F01E06FF81F861981A03C0180300600D3
:10050000C0680D831861F0FF183303603C0780F06A
:100510001E03C0780F0360CFF0FFE030180C060315
:10052000FD80C06030180FF8FFC0C0C0C0C0FEC062
:10053000C0C0C0C0C00F830E606603C00C00C1FC09
:1005400003C0360360730F0F10C0780F01E03C0743
:1005500080FFFE03C0780F01E03C06FFFFFFC006EE
:100560000C183060C183078F1E2780C0D8330C63FE
:100570000CC1B83F0730C3186306606C0CC0C0C024
:10058000C0C0C0C0C0C0C0C0C0FFE03F01FC1FE091
:10059000FD05EC6F637913CD9E6CF1478E3C718045
:1005A000E07C0FC1E83D8798F11E33C3786F07E008
:1005B0007C0E0F8183180CC06C01E00F007803C023
:1005C0001B01980C60C0F800FF306C0F03C0F06F87
:1005D000F300C0300C0300C0000F8183180CC06C06
:1005E00001E00F007803C01B01986C60C0FB00089D
:1005F000FF8C0EC06C06C06C0CFF8C0EC06C06C06D
:100600006C06C0703F186C0F03C01E01F00E00F0A6
:100610003C0D863F00FF86030180C06030180C0649
:10062000030180C0C0780F01E03C0780F01E03C0CA
:10063000780F01B061F0C06C0D8110630C61046033
:10064000CC1901603C070060C18130E19870CC2872
:100650006626211330C8986C4C14340A1A07070315
:100660000380818060630C30C1980F00E00600F0C9
:1006700019019830C60E6060C0360630C30C19816F
:10068000D80F00600600600600600600FFC0603002
:100690000C060301C0603018060300FFC0FB6DB6F6
:1006A000DB6DB6E0841084108410841080EDB6DB1E
:1006B0006DB6DBE03060A244D8A180FFC0C6307EBA
:1006C00071B0C060F3DB0D86C73DC0C060301BCE8B
:1006D000360F0783C1E0F07C6DE03C66C3C0C0C04C
:1006E000C0C3663C0303033B67C3C3C3C3C3C36741
:1006F0003B3C66C3C3FFC0C0C3663C366F666666DC
:1007000066603B67C3C3C3C3C3C3673B0303C67C05
:10071000C0C0C0DEE3C3C3C3C3C3C3C3C3C3FFFFFF
:10072000C03003333333333333E0C06030184C46CA
:100730006361F0EC6231986C30FFFFFFC0DEF71CA4
:10074000F0C7863C31E18F0C7863C31E18C0DEE32E
:10075000C3C3C3C3C3C3C3C33C66C3C3C3C3C3C34D
:10076000663CDE71B0783C1E0F0783E36F30180CD7
:10077000003B67C3C3C3C3C3C3673B030303DF318A
:100780008C6318C6003EE3C0C0E03C07C3E37E664E
:10079000F666666667C3C3C3C3C3C3C3C3C77BC1AF
:1007A000A098CC4221B0D0281C0C00C61E3891C4A1
:1007B000CA66D316D0A6871C38C0C6004362361C52
:1007C000181C3C266243C12198CC4261B0D0381C31
:1007D0000C0603010300FE0C30C1861820C1FC3654
:1007E00066666ECE66666630FFFFFFFFC0C6666651
:1007F0006737666666C06124380011241FBECFEFDC
:10080000D8E0DEBFCDBF11E0A0E0B1E0EEECF2E257
:1008100002C005900D92AE37B107D9F721E0AEE7DF
:10082000B1E001C01D92A13EB207E1F70E941C0495
:100830000C94BB100C94000000D000D000D0CDB7B9
:10084000DEB78091680082608093680080916C00C0
:10085000826080936C003998419A87E690E00E940C
:10086000FB0A0E947F090E94E0050E947C067894A2
:100870000E94B70A80918C018115E1F31092280142
:100880008091140190911501A0911601B09117016A
:100890008093800190938101A0938201B0938301A2
:1008A0008091000190910101A0910201B09103019A
:1008B0008093840190938501A0938601B093870172
:1008C0000E9497098D839E830E94CD0969837A8354
:1008D0008B839C8320E030E040E252E40E94950B41
:1008E00087FF2EC080917E0190917F01019709F4CE
:1008F0006BC08091140190911501A0911601B091E7
:1009000017018093800190938101A0938201B0939D
:1009100083018091000190910101A0910201B091A9
:1009200003018093840190938501A0938601B09385
:10093000870181E090E090937F0180937E0144C025
:1009400026E636E640E252E469817A818B819C8119
:100950000E94E20C87FD38C020E030E04CE552E414
:1009600069817A818B819C810E94950B87FF66C08B
:1009700080917E0190917F01029731F18091180161
:1009800090911901A0911A01B0911B0180938001EF
:1009900090938101A0938201B0938301809104011F
:1009A00090910501A0910601B09107018093840107
:1009B00090938501A0938601B0938701A2E0B0E0F7
:1009C000B0937F01A0937E016091880170918901AD
:1009D00080918A0190918B0129813A814B815C81C0
:1009E0000E94950B87FF0CC089819A81AB81BC81E5
:1009F0008093880190938901A0938A01B0938B0121
:100A0000E0907E01F0907F010091880110918901B2
:100A100020918A0130918B014D815E8169817A81BB
:100A20008B819C810E94120A9FEFA1EEB4E091504D
:100A3000A040B040E1F700C0000042CF26E636E615
:100A40004CE552E469817A818B819C810E94E20CA1
:100A500087FDBACF20E030E04CE852E469817A812A
:100A60008B819C810E94950B87FF2AC080917E011B
:100A700090917F01039709F4A7CF80911C01909179
:100A80001D01A0911E01B0911F01809380019093E0
:100A90008101A0938201B09383018091080190911C
:100AA0000901A0910A01B0910B01809384019093F8
:100AB0008501A0938601B093870183E090E03BCF4E
:100AC00023E333E34CE852E469817A818B819C8192
:100AD0000E94E20C87FD78CF20E030E04CE952E440
:100AE00069817A818B819C810E94950B87FF2AC046
:100AF00080917E0190917F01049709F465CF8091E8
:100B0000200190912101A0912201B09123018093B5
:100B1000800190938101A0938201B0938301809121
:100B20000C0190910D01A0910E01B0910F018093E5
:100B3000840190938501A0938601B0938701A4E07E
:100B4000B0E03ECF23E333E34CE952E469817A819C
:100B50008B819C810E94E20C87FD36CF80917E01C3
:100B600090917F01059709F42FCF809124019091F6
:100B70002501A0912601B0912701809380019093D7
:100B80008101A0938201B093830180911001909123
:100B90001101A0911201B0911301809384019093EF
:100BA0008501A0938601B093870185E090E0C3CED4
:100BB0008F93319903C081E080938C018F911895B8
:100BC0008CE284B980E58CBD2A9A08958EBD0DB45F
:100BD00007FEFDCF08952A9A08952A9808955F9AEE
:100BE0000895CF93DF930F92CDB7DEB789835F98D7
:100BF0000E94ED0589810E94E6050F90DF91CF915B
:100C00000C94EB05CF93DF930F92CDB7DEB78983BA
:100C10000E94EF050E94ED0589810E94E6050F9074
:100C2000DF91CF910C94EB05CF93DF930F92CDB76B
:100C3000DEB78983892F0E94E60589810F90DF91B5
:100C4000CF910C94E605BF92CF92DF92EF92FF9284
:100C50000F931F93CF93DF93EC012196FC01049136
:100C6000B12CB0120AC0DF91CF911F910F91FF906C
:100C7000EF90DF90CF90BF900895FE01849190E0B7
:100C80000E94F1056E01F2E0CF0ED11CFE013196FB
:100C90001491D12FDF777601C0E0CD1315C0CC0DB4
:100CA000DD2DD11DFE0117FF0DC02196E491EF3F10
:100CB00001F52FEF89E698E1215080409040E1F75F
:100CC00000C00000B394CDCFF70184910E940206CA
:100CD000CF5FFFEFEF1AFF0AE0CF8FE19EE40197AD
:100CE000F1F700C000002B5F3F4F2E173105ACF32A
:100CF000E9CF20E030E0F9CF579A209A0E94ED0525
:100D0000289A2FEF89E698E1215080409040E1F742
:100D100000C0000028982FEF89E698E1215080401C
:100D20009040E1F700C00000289A2FEF89E698E193
:100D3000215080409040E1F700C0000080EA90E040
:100D40000E94230683E990E00E94230688E690E053
:100D50000E94230686E390E00E94F10580EC0E9449
:100D6000020680E880938E0180EA80938D010895C9
:100D7000CF93DF9300D000D0CDB7DEB789836A83ED
:100D80004B832C838AE290E00E94F10580E00E9470
:100D9000020680918F019981890F0E94020680E0EE
:100DA0000E94020680918F019B81890F0E9402069A
:100DB0008BE290E00E94F10580E00E9402068091A3
:100DC00090019A81890F0E94020680E00E9402062B
:100DD000809190019C81890F0E9402068CE290E034
:100DE0000F900F900F900F90DF91CF910C94F10521
:100DF000CF93DF9300D0CDB7DEB749835A832091DC
:100E00008E0182179105C8F420918D01621771053A
:100E1000A0F421E0260F41E0480F0E94B8060E948E
:100E2000EF050E94ED0589819A810E9414060F90BA
:100E30000F90DF91CF910C94EB050F900F90DF9105
:100E4000CF910895FF920F931F93CF93DF9300D01C
:100E500000D0CDB7DEB74C832B8309831A83209152
:100E60008E01821708F03FC090918D016917D8F567
:100E7000E42FE80FFF27FF1F2E171F0614F4281B6F
:100E80002C834B81460F5527551F9417150614F4D4
:100E9000961B9B832FEF260F5B81250F4FEF480F8B
:100EA0009C81490F0E94B8060E94EF050E94ED0543
:100EB00010E0FB81F11315C00F900F900F900F9071
:100EC000DF91CF911F910F91FF900C94EB058981D9
:100ED0009A810E941406F394EC81EF11F8CF1F5F02
:100EE000E8CFF12CF9CF0F900F900F900F90DF917A
:100EF000CF911F910F91FF9008952F923F924F92A3
:100F00005F926F927F928F929F92AF92BF92CF9299
:100F1000DF92EF92FF920F931F93CF93DF9300D056
:100F200000D000D0CDB7DEB7490130E04D831E823E
:100F300021E02901441A51086D807E8071946194EA
:100F40007108660C771CC62ED12C082F10E08D81FD
:100F50009E81860F911DBC01A401C8010E94F80664
:100F6000B6012D813E81621B730BA401C8010E9452
:100F7000F806A401B6018D819E81800F911F0E9409
:100F8000F806A401B601C8012D813E81821B930B96
:100F90000E94F806E12CF12C170123948D819E818B
:100FA000E816F906CCF00F900F900F900F900F906D
:100FB0000F90DF91CF911F910F91FF90EF90DF90F5
:100FC000CF90BF90AF909F908F907F906F905F90E9
:100FD0004F903F902F90089557FC0AC08D819E81BD
:100FE00001978D839E8392E0690E711C460C571CFD
:100FF0002FEFE21AF20A32E0230E311C420C531C8E
:10100000C8018E0D9F1D8B839C83A401AD80BE8083
:10101000AC0CBD1CB5010E94F80698012E193F09C1
:1010200029833A83A401B501C9010E94F806A401ED
:1010300056018D819E81A81AB90AB5018B819C81C8
:101040000E94F806A401B50189819A810E94F806E0
:101050005701AC0CBD1CA401B5012D813E81200FB0
:10106000311F2B833C83C9010E94F806A401B501FE
:10107000C8012D813E81821B930B89839A830E9434
:10108000F8065601AE18BF08A401B5018B819C81FA
:101090000E94F806A401B50189819A810E94F80690
:1010A0007DCF3F924F925F926F927F928F929F92ED
:1010B000AF92BF92CF92DF92EF92FF920F931F9366
:1010C000CF93DF9300D000D0CDB7DEB7B82E762E09
:1010D0004B835C83D02EE982FA82011579F0F90105
:1010E00040805180FA01E080F180A12C612C312CEC
:1010F000EB81FC818381A81608F46BC00F900F90E0
:101100000F900F90DF91CF911F910F91FF90EF9073
:10111000DF90CF90BF90AF909F908F907F906F9017
:101120005F904F903F90089561100AC0F201EE0D5C
:10113000FF1DE4913E2EFFEFEF1AFF0A80E8682EB4
:10114000832D862131F12F5F3F4F6694C394EB814D
:10115000FC818281C81640F321153105C1F0D29E71
:10116000402D112486818A0D9B1D672DD89E600D10
:10117000112485818C0D9D1D821B09811A812D2DC5
:10118000FB2DD89EF00D11248F2F0E942207A394CF
:10119000AFCF21153105D1F0D29E402D1124EB8126
:1011A000FC818681880D991D672DD89E600D1124C4
:1011B00085818C0D9D1D821B09811A812D2DFB2D92
:1011C000D89EF00D11248F2F0E94220720E030E0DE
:1011D000BCCFC12C20E030E08A2C912CB8CF4F92AC
:1011E0005F926F927F928F929F92AF92BF92CF92B7
:1011F000DF92EF92FF920F931F93CF93DF93CDB7C0
:10120000DEB764970FB6F894DEBF0FBECDBF4F8731
:10121000588B102FE98AFA8A882E880F9908C62ED3
:10122000660FDD0847E050E0CE010896DC01F901C9
:101230000E94450E4F8458885401612C712C8B8B71
:101240009C8B8F8598890E94490E68167906B8F0A4
:1012500064960FB6F894DEBF0FBECDBFDF91CF917D
:101260001F910F91FF90EF90DF90CF90BF90AF90C4
:101270009F908F907F906F905F904F900895F201B4
:1012800021912F012A3051F48E85819FC00CD11CF1
:1012900011245401FFEF6F1A7F0AD3CF822F922FB0
:1012A000990F990B3C8583179105A4F34D85481739
:1012B000190684F32D3071F3831B910947E0489F91
:1012C0009001499F300D1124EA85FB85E20FF31F41
:1012D00050E0DE0111960E94450EE988FA88012F40
:1012E0002B893C89AE014F5F5F4FB601C5010E945B
:1012F00051088D81819FA00CB11C1124CBCF80E4BB
:1013000080937C0087E880937A0081E080937E0060
:10131000089580917A00806480937A0080917A00A9
:1013200086FDFCCF80917800909179000895CF924E
:10133000DF92EF92FF92CF93DF93C0E1D7E2E12CEF
:10134000F12C67010E9489099250889F9001899F22
:10135000300D300D1124032E000C0008C20ED31ED8
:10136000E01CF01C219771F7B601C70120E137E2BC
:1013700040E050E00E94060BB90180E090E00E943E
:10138000350C0E94A70D0E940C0CCB01DF91CF9170
:10139000FF90EF90DF90CF900895CF93DF9300D030
:1013A00000D0CDB7DEB70097C1F1BC0180E090E07E
:1013B0000E94350CB62FA72FF82FE92F209184011A
:1013C0003091850140918601509187016B2F7A2FD2
:1013D0008F2F9E2F0E949A0B0E94E70C2091800174
:1013E00030918101409182015091830129833A8398
:1013F0004B835C8320E030E040EA51E40E94340DEE
:1014000029813A814B815C810E94290B0F900F90BA
:101410000F900F90DF91CF910895A0E0B0E0EFE33F
:10142000F0E8CCCFEF92FF920F931F93CF93DF930F
:1014300000D000D000D0CDB7DEB749835A830B83EC
:101440001C832D833E830DEC11E022E046E00E94D8
:10145000230E29813A81B90180E090E00E94350C89
:1014600009EB11E022E046E00E94230E05EA11E0BC
:1014700022E046E06B817C818D819E810E94230E5B
:10148000B701FF0C880B982F0E94370C01E911E07F
:1014900022E046E00E94230E00E010E020EA40E84F
:1014A00060E080E00E9422078FEFE82E87E0F82EB0
:1014B00001E02BED30E049E251E06EE185E00E9471
:1014C000EF082BED30E04DEC51E062E385E00E9447
:1014D000EF08F094E12C2BED30E044E351E06EE6B0
:1014E00085E00E94EF082FE1E22EF12C2BED30E099
:1014F00049EB51E062E885E00E94EF08E12C38EF0B
:10150000F32E2BED30E040E451E066E486E40E94E7
:10151000EF084FE1E42EF12C2BED30E045EA51E0ED
:101520006AE586E40E94EF08E12C58EFF52E2BEDDA
:1015300030E049E451E066E485E00E94EF086FE1A5
:10154000E62EF12C2BED30E041E951E06AE585E033
:101550000E94EF080F900F900F900F900F900F9038
:10156000DF91CF911F910F91FF90EF900895EF922F
:10157000FF920F931F9300E010E020EA40E860E044
:1015800080E00E94220720E038EF4CE366E481E42B
:101590000E947D078FEFF82EEF2C01E02BED30E05D
:1015A00042E551E066E482E00E94EF082FEF89E611
:1015B00098E1215080409040E1F700C0000000E039
:1015C00020EA40E860E080E00E9422072FE130E05E
:1015D0004CE366E481E40E947D0701E02BED30E0FE
:1015E00041E651E066E485E00E94EF081F910F910B
:1015F000FF90EF9008959093C5008093C40088E118
:101600008093C10086E08093C2000895A1E21A2E63
:10161000AA1BBB1BFD010DC0AA1FBB1FEE1FFF1F96
:10162000A217B307E407F50720F0A21BB30BE40BE6
:10163000F50B661F771F881F991F1A9469F760952D
:101640007095809590959B01AC01BD01CF010895E7
:101650005058BB27AA270E94400B0C94A80C0E944C
:101660009A0C38F00E94A10C20F039F49F3F19F435
:1016700026F40C94970C0EF4E095E7FB0C94910C77
:10168000E92F0E94B90C58F3BA1762077307840751
:10169000950720F079F4A6F50C94DB0C0EF4E09598
:1016A0000B2EBA2FA02D0B01B90190010C01CA011C
:1016B000A0011124FF27591B99F0593F50F4503EC7
:1016C00068F11A16F040A22F232F342F4427585FB9
:1016D000F3CF469537952795A795F0405395C9F7D1
:1016E0007EF41F16BA0B620B730B840BBAF0915089
:1016F000A1F0FF0FBB1F661F771F881FC2F70EC028
:10170000BA0F621F731F841F48F4879577956795FA
:10171000B795F7959E3F08F0B0CF9395880F08F0E6
:101720009927EE0F9795879508950E946D0C08F400
:1017300081E008950E94AE0B0C94A80C0E94A10CAD
:1017400058F00E949A0C40F029F45F3F29F00C9465
:10175000910C51110C94DC0C0C94970C0E94B90C58
:1017600068F39923B1F3552391F3951B550BBB27D0
:10177000AA2762177307840738F09F5F5F4F220F15
:10178000331F441FAA1FA9F335D00E2E3AF0E0E80C
:1017900032D091505040E695001CCAF72BD0FE2F56
:1017A00029D0660F771F881FBB1F261737074807EA
:1017B000AB07B0E809F0BB0B802DBF01FF279358A2
:1017C0005F4F3AF09E3F510578F00C94910C0C94C9
:1017D000DC0C5F3FE4F3983ED4F3869577956795EC
:1017E000B795F7959F5FC9F7880F911D96958795D7
:1017F00097F90895E1E0660F771F881FBB1F6217F6
:1018000073078407BA0720F0621B730B840BBA0BB3
:10181000EE1F88F7E09508950E94C10C88F09F574D
:1018200098F0B92F9927B751B0F0E1F0660F771F04
:10183000881F991F1AF0BA95C9F714C0B13091F0FA
:101840000E94DB0CB1E008950C94DB0C672F782F1D
:101850008827B85F39F0B93FCCF3869577956795BF
:10186000B395D9F786F70C947C10E89404C097FBE5
:1018700016F40E947C109923A9F0F92F96E9BB2752
:101880009395F695879577956795B795F111F8CF6C
:10189000FAF4BB0F11F460FF1BC06F5F7F4F8F4FD7
:1018A0009F4F16C0882311F096E911C0772321F0CD
:1018B0009EE8872F762F05C0662371F096E8862F65
:1018C00070E060E02AF09A95660F771F881FDAF7BC
:1018D000880F9695879597F90895990F0008550FE9
:1018E000AA0BE0E8FEEF16161706E807F907C0F0A6
:1018F00012161306E407F50798F0621B730B840BAE
:10190000950B39F40A2661F0232B242B252B21F487
:1019100008950A2609F4A140A6958FEF811D811D27
:10192000089597F99F6780E870E060E008959FEF61
:1019300080EC089500240A94161617061806090666
:10194000089500240A941216130614060506089535
:10195000092E0394000C11F4882352F0BB0F40F4BD
:10196000BF2B11F460FF04C06F5F7F4F8F4F9F4FFD
:10197000089557FD9058440F551F59F05F3F71F07F
:101980004795880F97FB991F61F09F3F79F08795E6
:101990000895121613061406551FF2CF4695F1DF6F
:1019A00008C0161617061806991FF1CF86957105FF
:1019B000610508940895E894BB2766277727CB0133
:1019C00097F908950E946D0C08F48FEF08950E9416
:1019D000F70C2BE930E24AE95EE30C94340D16F083
:1019E0000C94E70D0C94970C68940C94910C0E9445
:1019F000C10CA8F39923C1F3AEF3DF93CF93C92FA2
:101A0000DD2788232AF02197660F771F881FDAF7D2
:101A100020E030E040E85FEB9FE3803C28F40E9448
:101A2000290BEAE7F1E206C08F7721960E94290B85
:101A3000E7EAF1E20E94FC0DBF937F936F93BE0132
:101A4000EC016F577040771F880B990B77950E94B8
:101A5000370C2F913F91AF91AE01CF91DF91BB2712
:101A60000E94400B0C94A80C0E94470D0C94A80CEB
:101A70000E949A0C38F00E94A10C20F0952311F0DE
:101A80000C94910C0C94970C11240C94DC0C0E9477
:101A9000B90C70F3959FC1F3950F50E0551F629FED
:101AA000F001729FBB27F00DB11D639FAA27F00DB7
:101AB000B11DAA1F649F6627B00DA11D661F829FDE
:101AC0002227B00DA11D621F739FB00DA11D621FC3
:101AD000839FA00D611D221F749F3327A00D611DE0
:101AE000231F849F600D211D822F762F6A2F1124C2
:101AF0009F5750409AF0F1F088234AF0EE0FFF1FF5
:101B0000BB1F661F771F881F91505040A9F79E3F4B
:101B1000510580F00C94910C0C94DC0C5F3FE4F3C5
:101B2000983ED4F3869577956795B795F795E795A1
:101B30009F5FC1F7FE2B880F911D9695879597F9AA
:101B4000089519F416F40C94970C0C94E70D0E9468
:101B5000C10CB8F39923C9F3B6F39F57550B87FF10
:101B60000E94F50D0024A0E640EA900180585695A9
:101B7000979528F4805C660F771F881F20F0261742
:101B80003707480730F4621B730B840B2029312977
:101B90004A2BA69517940794202531254A2758F7F4
:101BA000660F771F881F20F026173707480730F485
:101BB000620B730B840B200D311D411DA09581F725
:101BC000B901842F9158880F9695879508959F3F66
:101BD00031F0915020F4879577956795B795880FE8
:101BE000911D9695879597F9089591505040660FED
:101BF000771F881FD2F70895DF93CF931F930F931A
:101C0000FF92EF92DF927B018C01689406C0DA2E7E
:101C1000EF010E94470DFE01E894A59125913591B1
:101C200045915591A6F3EF010E94400BFE019701EB
:101C3000A801DA9469F7DF90EF90FF900F911F9160
:101C4000CF91DF910895EF920F931F93CF93DF937E
:101C500000D0CDB7DEB709831A8334E147FF34E003
:101C600047FD4195E32E022F242F49815A810E947E
:101C7000520E89819A810F900F90DF91CF911F9121
:101C80000F91EF90089505900D9241505040D8F774
:101C90000895FC0101900020E9F7809590958E0F42
:101CA0009F1F0895A9E0B0E0E8E5FEE00C948A10DB
:101CB0006A01F22EB02E102F2CE3021708F01BE35E
:101CC0001F5F012F27E0AE014F5F5F4F0E94A40FFF
:101CD000BC012981822F89709DE2813029F0E0FAD0
:101CE000992795F9E1FC9BE2422F487023FF41C000
:101CF00084E0911101C083E08F15C8F4F81AE4FE66
:101D000022C0911519F0F60191936F01C601039657
:101D10002EE631E6E2FE02C02EE431E4D6012D9338
:101D20003D932C932F2D382F492F50E216C0F12CC4
:101D3000E6CFF901419381509F018111FACFCF0C79
:101D4000D11CF12CDECF8F2D960140E2F6CFE32F90
:101D5000F42F519321503E2F4F2F2111F8CF8F0D8B
:101D6000911DFC0110828EEF9FEF2996ECE00C9400
:101D7000A610322F347022FF3BC084E0911101C0C5
:101D800083E08F1510F44F2D481BE4FE22C09115FF
:101D900019F0F60191936F01C601039659E626E604
:101DA0003EE6E2FE03C059E426E43EE4D6015D933C
:101DB0003D932C93242F382F592F60E214C0F90142
:101DC000519381509F018111FACFC40ED11C40E084
:101DD000DECF842F960150E2F6CFE32FF52F6193EB
:101DE00021503E2F5F2F2111F8CF840F911DB9CFC5
:101DF000AB0177FF02C040E050E0E1E0F0E091117C
:101E000001C0E0E0DA011196AE0FBF1FEB2DB11457
:101E1000A1F05F018FEFA81AB80AAA0DBB1DAF157C
:101E2000B10514F43F2D3A1B8E2D8871C9F4832F10
:101E30000C2DFD2CA0E2BA2E09C0A12CB12CEDCFA7
:101E4000A02FBF2DBD9281500A2FFB2E8111F8CFFC
:101E5000C30ED11C911107C0760130E080E310C0A1
:101E6000911529F0832FD6019D93382F6D01E4FC45
:101E70000CC0932F7601F2CFD6018D9331506D01B6
:101E80003111FACF6701C90ED11C012F060F9A81BB
:101E900024FF03C0913309F40150101694F5093062
:101EA00008F008E0DE011196A60FB71F4D01841A55
:101EB000950ADB01A01BB1098D01EE24FF24EE1A67
:101EC000FF0A8EE2B82E64177507ECF004171507A9
:101ED000D4F4F401818141505109F60131964E1537
:101EE0005F059CF0AFEF8A1A9A0AD6018C934F3F98
:101EF000540729F4F6013296D6011196BC926F016F
:101F0000E2CF01E0CFCF80E3E6CF6417750729F475
:101F1000953318F081F424FF0EC0D6018C93832FE3
:101F20009E2F2F2F40E2811108C0E30FF11D108278
:101F300080E090E01ACF81E3F0CFA92FB22F4D932C
:101F400081509A2F2B2FEFCF283008F027E033272E
:101F5000DA01990F311D87FD9160009661057105C9
:101F600039F432602E5F3D9330E32A95E1F708950E
:101F70009F3F30F080387105610509F03C5F3C5FA0
:101F80003D93913008F08068911DDF93CF931F93AC
:101F90000F93FF92EF92192F987F9695E92F9695C0
:101FA0009695E90FFF27E25DFD4D99273327EE2433
:101FB000FF24A701E70105900894079428F4360F41
:101FC000E71EF81E491F511D660F771F881F991FB6
:101FD0000694A1F70590079428F4E70EF81E491F10
:101FE000561FC11D770F881F991F661F0694A1F702
:101FF0000590079428F4F80E491F561FC71FD11DDE
:10200000880F991F661F771F0694A1F70590079404
:1020100020F4490F561FC71FD81F990F661F771F3F
:10202000881F0694A9F784911095177041F0D695F2
:10203000C79557954795F794E7941A95C1F7E4ED3E
:10204000F1E26894159015913591659195910590FF
:102050007FE27395E118F10A430B560BC90BD009C7
:10206000C0F7E10CF11E431F561FC91FD01D7EF49F
:10207000703311F48A95E6CFE894015030F0080FE0
:102080000AF40027021708F4202F2395022F7A3331
:1020900028F079E37D932A95E9F710C07D932A957E
:1020A00089F6069497956795379517951794E118D3
:1020B000F10A430B560BC90BD00998F023957E917A
:1020C00073957A3308F070E37C932013B8F77E9110
:1020D00070617D9330F0839571E37D9370E32A9571
:1020E000E1F71124EF90FF900F911F91CF91DF91B5
:1020F000992787FD909508959095809570956195A5
:102100007F4F8F4F9F4F08952F923F924F925F9234
:102110006F927F928F929F92AF92BF92CF92DF92F7
:10212000EF92FF920F931F93CF93DF93CDB7DEB75C
:10213000CA1BDB0B0FB6F894DEBF0FBECDBF0994F0
:102140002A88398848885F846E847D848C849B8447
:10215000AA84B984C884DF80EE80FD800C811B8155
:10216000AA81B981CE0FD11D0FB6F894DEBF0FBE84
:10217000CDBFED010895F894FFCF089C1A22BDA0B1
:102180009220003EBECCD558BE94DEA0903EA0A5C5
:102190004BB8BE20A932F63E802AAA38BF223BAAFD
:1021A000B83F0000000000083C5BF7BEDAD7AA7118
:1021B0003D8C77868CBE2EEE93913E7A9FCEB8BE34
:1021C000102437F63EFA3CAA38BF283BAAB83F0095
:1021D0000000000000407A10F35A00A0724E180967
:1021E0000010A5D4E80000E87648170000E40B547E
:1021F000020000CA9A3B000000E1F505000080964D
:102200009800000040420F000000A086010000007E
:10221000102700000000E803000000006400000038
:1022200000000A00000000000100000000002C7601
:10223000D888DC674F0823DFC1DFAE59E1B1B7961C
:10224000E5E3E453C63AE651997696E8E6C2842679
:10225000EB898C9B62ED407C6FFCEFBC9C9F40F255
:10226000BAA56FA5F490055A2AF75C936B6CF967D1
:102270006DC11BFCE0E40D47FEF520E6B500D0ED96
:10228000902E0300943577050080841E08000020FE
:102290004E0A000000C80C333333330F986E12839C
:1022A0001141EF8D2114893BE65516CFFEE6DB1870
:1022B000D1844B381BF77C1D901DA4BBE424203235
:0E22C00084725E228100C9F124ECA1E53D2765
:1022CE000000803F000080400000E04000004041E0
:1022DE0000008041000028420000484200007A427F
:1022EE00000094420000A042014465636962656C7F
:1022FE00733A2000524D532076616C75653A20007A
:10230E004D61782064623A20004462207265663A1C
:10231E002000536574757020636F6D706C65746505
:10232E0000507265737320746865200A206275749C
:0E233E00746F6E20746F2073746172740000EF
:00000001FF
