:100000000C94FD030C941A040C941A040C943E05F1
:100010000C941A040C941A040C941A040C941A04E8
:100020000C941A040C941A040C941A040C941A04D8
:100030000C941A040C941A040C941A040C941A04C8
:100040000C941A040C941A040C941A040C941A04B8
:100050000C941A040C941A040C941A040C941A04A8
:100060000C941A040C941A0408036F00207E1600E6
:100070000000000500010000020D0602F404000566
:10008000040601F407000A0C0A00F5160009100A1C
:1000900001F32800100D1001F442000B0D0C01F4C7
:1000A000540002040401F4550004110601F45E003A
:1000B00004110601F4670005050701F46B0006084A
:1000C0000B03F9710002040502007200040106012D
:1000D000FC730002010501007400050D0500F47DAC
:1000E00000080D0A01F48A00040D0A03F4910009C6
:1000F0000D0A01F4A000080D0A01F4AD00070D0A75
:1001000002F4B900090D0A01F4C800090D0A01F44E
:10011000D700080D0A00F4E400090D0A01F4F30009
:10012000080D0A01F40001020A0501F70301030C9E
:100130000501F8080109090B01F8130109040B0175
:10014000FB180109090B01F82301090D0A01F4321A
:100150000111101201F454010C0D0C00F468010B94
:100160000D0C01F47A010B0D0D01F48C010B0D0D3A
:1001700001F49E01090D0B01F4AD01080D0B01F412
:10018000BA010C0D0E01F4CE010B0D0D01F4E001CE
:10019000020D0502F4E401070D0A01F4F0010B0D54
:1001A0000C01F40202080D0A01F40F020D0D0F01FB
:1001B000F425020B0D0D01F437020D0D0E01F44D67
:1001C000020A0D0C01F45E020D0E0E01F475020C14
:1001D0000D0D01F489020A0D0C01F49A02090D0BB0
:1001E00001F4A9020B0D0D01F4BB020B0D0C00F480
:1001F000CD02110D1100F4E9020C0D0C00F4FD020A
:100200000C0D0C00F411030A0D0B01F42203031171
:100210000501F42903050D0500F43203031105005F
:10022000F4390307070801F440030A010A000342F6
:100230000304030500F44403090A0A01F750030903
:100240000D0A01F45F03080A0901F76903080D0AA2
:1002500001F47603080A0A01F78003040D0501F48E
:100260008703080E0A01F79503080D0A01F4A2039B
:10027000020D0401F4A60304110400F4AF03090DF8
:100280000901F4BE03020D0401F4C2030D0A0F01BB
:10029000F7D303080A0A01F7DD03080A0A01F7E7A2
:1002A00003090D0A01F7F603080D0A01F703040517
:1002B0000A0601F70A04080A0901F71404040C05E8
:1002C00001F51A04080A0A01F72404090A0900F7CB
:1002D00030040D0A0D00F74104080A0900F74B0429
:1002E000090E0900F75B04070A0901F76404041109
:1002F0000601F46D0402110402F4720404110601F3
:10030000F47B0407030901F9FFFFF8C0DEF72009B9
:10031000864191FF1304C320C8FF89826190101F9A
:1003200014DA3D1E8340781708F47A3533F0402004
:100330003810EC20C620C640C6406C803900013C15
:100340000277026304630477083C0E0660CC1981CF
:10035000E0180F0336C2D8730631E3C4FE13266CCF
:10036000CCCCC46623108C4663333332664C802574
:100370007EA50030C33F30C30CD6F0C00844211026
:1003800084421108003C6642C3C3C3C3C3C3C34213
:10039000663C113F33333333303E31B07830181C74
:1003A0001C1C1818100807F83C66C3C303061C077A
:1003B00003C3C3663C0C187162C9A346FE183060C3
:1003C000C07F2010080807F38C030180F06C63E005
:1003D0001E3198780C06F38D83C1E0D06C63E0FF8A
:1003E000030206040C081818181030303E31B0789B
:1003F0003C1B18F8C6C1E0F06C63E03C66C2C3C3A6
:10040000C3673B0303C2663CC00030C0000064A069
:100410000081C78E0C0780700E0180FF80001FF0E6
:1004200000700E01C0183871C080003E31B07830C5
:1004300018183818180C0000018003F0060E060189
:100440008600661DBB31CF18C79863CC31E611B367
:1004500099CCF7860001800070400FE00600F00F95
:10046000009019819810830C3FC204606606C0306A
:10047000FF183303606C0D833FC606C0780F01E0A0
:100480006FF81F861981A03C0180300600C0680DFE
:10049000831861F0FF183303603C0780F01E03C02F
:1004A000780F0360CFF0FFE030180C0603FD80C02A
:1004B0006030180FF8FFC0C0C0C0C0FEC0C0C0C0D0
:1004C000C0C00F830E606603C00C00C1FC03C036C1
:1004D0000360730F0F10C0780F01E03C0780FFFE30
:1004E00003C0780F01E03C06FFFFFFC0060C183088
:1004F00060C183078F1E2780C0D8330C630CC1B83E
:100500003F0730C3186306606C0CC0C0C0C0C0C0D9
:10051000C0C0C0C0C0C0FFE03F01FC1FE0FD05EC53
:100520006F637913CD9E6CF1478E3C7180E07C0F38
:10053000C1E83D8798F11E33C3786F07E07C0E0F4A
:100540008183180CC06C01E00F007803C01B019878
:100550000C60C0F800FF306C0F03C0F06FF300C0F8
:10056000300C0300C0000F8183180CC06C01E00F39
:10057000007803C01B01986C60C0FB0008FF8C0E64
:10058000C06C06C06C0CFF8C0EC06C06C06C06C044
:10059000703F186C0F03C01E01F00E00F03C0D867A
:1005A0003F00FF86030180C06030180C0603018005
:1005B000C0C0780F01E03C0780F01E03C0780F0137
:1005C000B061F0C06C0D8110630C610460CC190146
:1005D000603C070060C18130E19870CC286626211C
:1005E0001330C8986C4C14340A1A0707030380812F
:1005F0008060630C30C1980F00E00600F01901988C
:1006000030C60E6060C0360630C30C1981D80F00AA
:10061000600600600600600600FFC060300C060344
:1006200001C0603018060300FFC0FB6DB6DB6DB67D
:10063000E0841084108410841080EDB6DB6DB6DB8E
:10064000E03060A244D8A180FFC0C6307E71B0C047
:1006500060F3DB0D86C73DC0C060301BCE360F0790
:1006600083C1E0F07C6DE03C66C3C0C0C0C0C3661F
:100670003C0303033B67C3C3C3C3C3C3673B3C66BD
:10068000C3C3FFC0C0C3663C366F66666666603B28
:1006900067C3C3C3C3C3C3673B0303C67CC0C0C037
:1006A000DEE3C3C3C3C3C3C3C3C3C3FFFFC03003BD
:1006B000333333333333E0C06030184C466361F07A
:1006C000EC6231986C30FFFFFFC0DEF71CF0C7868C
:1006D0003C31E18F0C7863C31E18C0DEE3C3C3C393
:1006E000C3C3C3C3C33C66C3C3C3C3C3C3663CDE87
:1006F00071B0783C1E0F0783E36F30180C003B6726
:10070000C3C3C3C3C3C3673B030303DF318C631895
:10071000C6003EE3C0C0E03C07C3E37E66F6666603
:100720006667C3C3C3C3C3C3C3C3C77BC1A098CCDD
:100730004221B0D0281C0C00C61E3891C4CA66D312
:1007400016D0A6871C38C0C6004362361C181C3C55
:10075000266243C12198CC4261B0D0381C0C0603FC
:10076000010300FE0C30C1861820C1FC3666666E9F
:10077000CE66666630FFFFFFFFC0C66666673766F7
:100780006666C061243804E010021C071237322963
:100790002D29252B3900010310E110031D07062E1A
:1007A0002C292D2E2E373F0000021013800A29809D
:1007B00064022A040000007F2B040000009F0F0148
:1007C00080961180FFB103012C2DB203012C2DB3B3
:1007D00006012C2D012C2DB40107C003A20284C1F7
:1007E00001C5C2020A00C3028A2AC4028AEEC501F8
:1007F0000E20003601C83A01050011241FBECFEFBC
:10080000D8E0DEBFCDBF11E0A0E0B1E0E2E7FDE15E
:1008100002C005900D92A032B107D9F721E0A0E205
:10082000B1E001C01D92AD32B207E1F70E941C0495
:100830000C940D0E0C940000CDB7DEB7EE970FB6FA
:10084000F894DEBF0FBECDBF8091680081608093B9
:10085000680080916B00816080936B002098289ADB
:1008600087E690E00E947B080E94E8070E94460508
:100870000E94E205789400E010E020EA40E860E0A1
:1008800080E00E945F061EAE1DAE58E4A52E52E425
:10089000B52E480160E8662E6FE3762E2401809124
:1008A00028018115F1F02FEF89EF90E02150804071
:1008B0009040E1F700C00000189911C08DAD9EADC9
:1008C000892B09F0A8C0A1E0B0E0BEAFADAF00E059
:1008D00010E020EA40E860E080E00E945F061092AD
:1008E00028018DAD9EAD8130910509F4A0C0823004
:1008F000910509F4ADC0892BA1F480E090E0A0E25D
:10090000B1E48093200190932101A0932201B09340
:100910002301409224015092250160922601709299
:1009200027010E9400087C010E9436088E01075DA5
:100930001F4F22E046E00E94750B6DAD7EAD6F5FEC
:100940007F4F80E090E00E94B0090451110922E03D
:1009500046E00E94750BB70180E090E00E94B0096C
:100960000451110922E046E00E94750B8FEFE82E3A
:1009700087E0F82E01E028E630E040E051E06EE14B
:1009800085E00E94580728E630E0AE01475D5F4FE2
:1009900062E385E00E945807F094E12C28E630E0FD
:1009A0004CE051E06EE685E00E9458072FE1E22E10
:1009B000F12C28E630E0AE014F5F5F4F62E885E042
:1009C0000E945807E12C38EFF32E28E630E048E18A
:1009D00051E066E485E00E9458074FE1E42EF12CD7
:1009E00028E630E0AE014B5E5F4F6AE581E00E9491
:1009F00058079FEFA1EEB4E09150A040B040E1F75E
:100A000000C0000000E010E020EA40E860E080E084
:100A10000E945F0644CF8DAD9EAD019729F482E020
:100A200090E09EAF8DAF53CF1EAE1DAE50CF8092E3
:100A3000200190922101A0922201B0922301809284
:100A4000240190922501A0922601B092270169CF3E
:100A500080E090E0AAEAB2E4809320019093210123
:100A6000A0932201B0932301A8EC809324019093DA
:100A70002501A0932601B093270153CF8F93189996
:100A800003C081E0809328018F9118958CE284B98E
:100A900080E58CBD2A9A08958EBD0DB407FEFDCF6A
:100AA00008952A9A08952A9808955E9A0895CF93F2
:100AB000DF930F92CDB7DEB789835E980E9453050E
:100AC00089810E944C050F90DF91CF910C945105C4
:100AD000CF93DF930F92CDB7DEB789830E94550580
:100AE0000E94530589810E944C050F90DF91CF91A0
:100AF0000C945105CF93DF930F92CDB7DEB7898366
:100B0000892F0E944C0589810F90DF91CF910C9421
:100B10004C05BF92CF92DF92EF92FF920F931F93FB
:100B2000CF93DF93EC012196FC010491B12CB0121C
:100B30000AC0DF91CF911F910F91FF90EF90DF904E
:100B4000CF90BF900895FE01849190E00E945705D8
:100B50006E01F2E0CF0ED11CFE0131961491D12F1F
:100B6000DF777601C0E0CD1315C0CC0DDD2DD11D92
:100B7000FE0117FF0DC02196E491EF3F01F52FEF25
:100B800089E698E1215080409040E1F700C00000E4
:100B9000B394CDCFF70184910E946805CF5FFFEF3A
:100BA000EF1AFF0AE0CF8FE19EE40197F1F700C052
:100BB00000002B5F3F4F2E173105ACF3E9CF20E04B
:100BC00030E0F9CF8AB1806C8AB90E9453055F9AF0
:100BD0002FEF89E698E1215080409040E1F700C076
:100BE00000005F982FEF89E698E121508040904007
:100BF000E1F700C000005F9A2FEF89E698E12150ED
:100C000080409040E1F700C000008EEB97E00E942A
:100C1000890581EB97E00E94890586E897E00E94AC
:100C2000890586E390E00E94570580EC0E946805E4
:100C300080E880932A0180EA809329010895CF9368
:100C4000DF9300D000D0CDB7DEB789836A834B83B2
:100C50002C838AE290E00E94570580E00E9468059C
:100C600080912B019981890F0E94680580E00E9484
:100C7000680580912B019B81890F0E9468058BE29A
:100C800090E00E94570580E00E94680580912C0149
:100C90009A81890F0E94680580E00E946805809112
:100CA0002C019C81890F0E9468058CE290E00F90D6
:100CB0000F900F900F90DF91CF910C945705FF92FA
:100CC0000F931F93CF93DF9300D000D0CDB7DEB743
:100CD0004C832B8309831A8320912A01821708F001
:100CE0003FC0909129016917D8F5E42FE80FFF273D
:100CF000FF1F2E171F0614F4281B2C834B81460F51
:100D00005527551F9417150614F4961B9B832FEF38
:100D1000260F5B81250F4FEF480F9C81490F0E94E2
:100D20001F060E9455050E94530510E0FB81F11338
:100D300015C00F900F900F900F90DF91CF911F91E2
:100D40000F91FF900C94510589819A810E947A0538
:100D5000F394EC81EF11F8CF1F5FE8CFF12CF9CFBE
:100D60000F900F900F900F90DF91CF911F910F91E7
:100D7000FF9008953F924F925F926F927F928F9271
:100D80009F92AF92BF92CF92DF92EF92FF920F931A
:100D90001F93CF93DF9300D000D0CDB7DEB7B82E2E
:100DA000762E4B835C83D02EE982FA82011579F08E
:100DB000F90140805180FA01E080F180A12C612C82
:100DC000312CEB81FC818381A81608F46BC00F9055
:100DD0000F900F900F90DF91CF911F910F91FF9087
:100DE000EF90DF90CF90BF90AF909F908F907F90CB
:100DF0006F905F904F903F90089561100AC0F2018C
:100E0000EE0DFF1DE4913E2EFFEFEF1AFF0A80E882
:100E1000682E832D862131F12F5F3F4F6694C39456
:100E2000EB81FC818281C81640F321153105C1F0A8
:100E3000D29E402D112486818A0D9B1D672DD89E40
:100E4000600D112485818C0D9D1D821B09811A81E5
:100E50002D2DFB2DD89EF00D11248F2F0E945F06A3
:100E6000A394AFCF21153105D1F0D29E402D11248E
:100E7000EB81FC818681880D991D672DD89E600DC0
:100E8000112485818C0D9D1D821B09811A812D2DB8
:100E9000FB2DD89EF00D11248F2F0E945F0620E0BD
:100EA00030E0BCCFC12C20E030E08A2C912CB8CFB0
:100EB0004F925F926F927F928F929F92AF92BF926A
:100EC000CF92DF92EF92FF920F931F93CF93DF9316
:100ED000CDB7DEB764970FB6F894DEBF0FBECDBFB7
:100EE0004F87588B102FE98AFA8A882E880F990825
:100EF000C62E660FDD0847E050E0CE010896DC0103
:100F0000F9010E94970B4F8458885401612C712C71
:100F10008B8B9C8B8F8598890E949B0B681679061A
:100F2000B8F064960FB6F894DEBF0FBECDBFDF9168
:100F3000CF911F910F91FF90EF90DF90CF90BF90D6
:100F4000AF909F908F907F906F905F904F9008959B
:100F5000F20121912F012A3051F48E85819FC00C1E
:100F6000D11C11245401FFEF6F1A7F0AD3CF822FB7
:100F7000922F990F990B3C8583179105A4F34D850A
:100F80004817190684F32D3071F3831B910947E04C
:100F9000489F9001499F300D1124EA85FB85E20F9F
:100FA000F31F50E0DE0111960E94970BE988FA8842
:100FB000012F2B893C89AE014F5F5F4FB601C50100
:100FC0000E94BA068D81819FA00CB11C1124CBCF49
:100FD00080E480937C0087E880937A0081E08093AE
:100FE0007E00089580917A00806480937A008091D9
:100FF0007A0086FDFCCF8091780090917900089569
:10100000CF92DF92EF92FF92CF93DF93C0E1D7E2CE
:10101000E12CF12C67010E94F2079250889F900109
:10102000899F300D300D1124032E000C0008C20ED4
:10103000D31EE01CF01C219771F7B601C70120E117
:1010400037E240E050E00E948608B90180E090E07D
:101050000E94B0090E94F90A0E948709CB01DF9122
:10106000CF91FF90EF90DF90CF900895CF93DF93D3
:1010700000D000D0CDB7DEB70097C1F1BC0180E051
:1010800090E00E94B009B62FA72FF82FE92F2091EA
:1010900024013091250140912601509127016B2FA9
:1010A0007A2F8F2F9E2F0E9415090E94390A2091B6
:1010B0002001309121014091220150912301298387
:1010C0003A834B835C8320E030E040EA51E40E94A5
:1010D000860A29813A814B815C810E94A9080F9080
:1010E0000F900F900F90DF91CF910895A0E0B0E0A6
:1010F000EFE3F0E8CCCF9093C5008093C40088E183
:101100008093C10086E08093C2000895A1E21A2E68
:10111000AA1BBB1BFD010DC0AA1FBB1FEE1FFF1F9B
:10112000A217B307E407F50720F0A21BB30BE40BEB
:10113000F50B661F771F881F991F1A9469F7609532
:101140007095809590959B01AC01BD01CF010895EC
:101150005058BB27AA270E94C0080C94FF090E9480
:10116000F10938F00E94F80920F039F49F3F19F492
:1011700026F40C94EE090EF4E095E7FB0C94E809D4
:10118000E92F0E94100A58F3BA1762077307840701
:10119000950720F079F4A6F50C94320A0EF4E09548
:1011A0000B2EBA2FA02D0B01B90190010C01CA0121
:1011B000A0011124FF27591B99F0593F50F4503ECC
:1011C00068F11A16F040A22F232F342F4427585FBE
:1011D000F3CF469537952795A795F0405395C9F7D6
:1011E0007EF41F16BA0B620B730B840BBAF091508E
:1011F000A1F0FF0FBB1F661F771F881FC2F70EC02D
:10120000BA0F621F731F841F48F4879577956795FF
:10121000B795F7959E3F08F0B0CF9395880F08F0EB
:101220009927EE0F9795879508950E9429090C94A8
:10123000FF090E94F80958F00E94F10940F029F4D2
:101240005F3F29F00C94E80951110C94330A0C9477
:10125000EE090E94100A68F39923B1F3552391F324
:10126000951B550BBB27AA2762177307840738F015
:101270009F5F5F4F220F331F441FAA1FA9F335D072
:101280000E2E3AF0E0E832D091505040E695001C26
:10129000CAF72BD0FE2F29D0660F771F881FBB1FE0
:1012A000261737074807AB07B0E809F0BB0B802DBE
:1012B000BF01FF2793585F4F3AF09E3F510578F0EA
:1012C0000C94E8090C94330A5F3FE4F3983ED4F39E
:1012D000869577956795B795F7959F5FC9F7880FBE
:1012E000911D9695879597F90895E1E0660F771F10
:1012F000881FBB1F621773078407BA0720F0621BA1
:10130000730B840BBA0BEE1F88F7E09508950E94CB
:10131000180A88F09F5798F0B92F9927B751B0F065
:10132000E1F0660F771F881F991F1AF0BA95C9F769
:1013300014C0B13091F00E94320AB1E008950C94CB
:10134000320A672F782F8827B85F39F0B93FCCF37E
:10135000869577956795B395D9F786F70C94CE0D5A
:10136000E89404C097FB16F40E94CE0D9923A9F0CF
:10137000F92F96E9BB279395F6958795779567950D
:10138000B795F111F8CFFAF4BB0F11F460FF1BC051
:101390006F5F7F4F8F4F9F4F16C0882311F096E9E4
:1013A00011C0772321F09EE8872F762F05C0662392
:1013B00071F096E8862F70E060E02AF09A95660F4B
:1013C000771F881FDAF7880F9695879597F9089504
:1013D00097F99F6780E870E060E008959FEF80ECE8
:1013E000089500240A94161617061806090608958B
:1013F00000240A9412161306140605060895092EF1
:101400000394000C11F4882352F0BB0F40F4BF2B5F
:1014100011F460FF04C06F5F7F4F8F4F9F4F08959F
:1014200057FD9058440F551F59F05F3F71F0479595
:10143000880F97FB991F61F09F3F79F0879508957A
:10144000121613061406551FF2CF4695F1DF08C099
:10145000161617061806991FF1CF869571056105B6
:1014600008940895E894BB2766277727CB0197F95E
:1014700008950E94490A2BE930E24AE95EE30C94A0
:10148000860A16F00C94390B0C94EE0968940C94AF
:10149000E8090E94180AA8F39923C1F3AEF3DF9379
:1014A000CF93C92FDD2788232AF02197660F771F56
:1014B000881FDAF720E030E040E85FEB9FE3803CF4
:1014C00028F40E94A908EEE1FCE106C08F7721967E
:1014D0000E94A908EBE4FCE10E944E0BBF937F93AE
:1014E0006F93BE01EC016F577040771F880B990B0B
:1014F00077950E94B2092F913F91AF91AE01CF91A4
:10150000DF91BB270E94C0080C94FF090E94990A32
:101510000C94FF090E94F10938F00E94F80920F0AC
:10152000952311F00C94E8090C94EE0911240C9405
:10153000330A0E94100A70F3959FC1F3950F50E093
:10154000551F629FF001729FBB27F00DB11D639F75
:10155000AA27F00DB11DAA1F649F6627B00DA11D1B
:10156000661F829F2227B00DA11D621F739FB00DC1
:10157000A11D621F839FA00D611D221F749F332731
:10158000A00D611D231F849F600D211D822F762FCA
:101590006A2F11249F5750409AF0F1F088234AF0A7
:1015A000EE0FFF1FBB1F661F771F881F9150504013
:1015B000A9F79E3F510580F00C94E8090C94330A7A
:1015C0005F3FE4F3983ED4F3869577956795B7959A
:1015D000F795E7959F5FC1F7FE2B880F911D9695B4
:1015E000879597F9089519F416F40C94EE090C9464
:1015F000390B0E94180AB8F39923C9F3B6F39F5721
:10160000550B87FF0E94470B0024A0E640EA90019B
:1016100080585695979528F4805C660F771F881F31
:1016200020F026173707480730F4621B730B840B32
:10163000202931294A2BA695179407942025312576
:101640004A2758F7660F771F881F20F0261737079D
:10165000480730F4620B730B840B200D311D411DC4
:10166000A09581F7B901842F9158880F9695879599
:1016700008959F3F31F0915020F4879577956795B5
:10168000B795880F911D9695879597F90895915074
:101690005040660F771F881FD2F70895DF93CF93CE
:1016A0001F930F93FF92EF92DF927B018C0168945E
:1016B00006C0DA2EEF010E94990AFE01E894A59176
:1016C0002591359145915591A6F3EF010E94C008EF
:1016D000FE019701A801DA9469F7DF90EF90FF907F
:1016E0000F911F91CF91DF910895EF920F931F9368
:1016F000CF93DF9300D0CDB7DEB709831A8334E1EF
:1017000047FF34E047FD4195E32E022F242F498106
:101710005A810E94A40B89819A810F900F90DF91CA
:10172000CF911F910F91EF90089505900D92415028
:101730005040D8F70895FC0101900020E9F780950A
:1017400090958E0F9F1F0895A9E0B0E0EAEAFBE0B4
:101750000C94DC0D6A01F22EB02E102F2CE3021730
:1017600008F01BE31F5F012F27E0AE014F5F5F4FC3
:101770000E94F60CBC012981822F89709DE2813084
:1017800029F0E0FA992795F9E1FC9BE2422F487095
:1017900023FF41C084E0911101C083E08F15C8F49C
:1017A000F81AE4FE22C0911519F0F60191936F0129
:1017B000C60103962EE631E6E2FE02C02EE431E4D5
:1017C000D6012D933D932C932F2D382F492F50E286
:1017D00016C0F12CE6CFF901419381509F01811190
:1017E000FACFCF0CD11CF12CDECF8F2D960140E229
:1017F000F6CFE32FF42F519321503E2F4F2F21117D
:10180000F8CF8F0D911DFC0110828EEF9FEF29966E
:10181000ECE00C94F80D322F347022FF3BC084E0D2
:10182000911101C083E08F1510F44F2D481BE4FE89
:1018300022C0911519F0F60191936F01C60103962C
:1018400059E626E63EE6E2FE03C059E426E43EE41D
:10185000D6015D933D932C93242F382F592F60E2AE
:1018600014C0F901519381509F018111FACFC40E28
:10187000D11C40E0DECF842F960150E2F6CFE32F5B
:10188000F52F619321503E2F5F2F2111F8CF840F48
:10189000911DB9CFAB0177FF02C040E050E0E1E01D
:1018A000F0E0911101C0E0E0DA011196AE0FBF1F28
:1018B000EB2DB114A1F05F018FEFA81AB80AAA0DA1
:1018C000BB1DAF15B10514F43F2D3A1B8E2D887149
:1018D000C9F4832F0C2DFD2CA0E2BA2E09C0A12C37
:1018E000B12CEDCFA02FBF2DBD9281500A2FFB2E22
:1018F0008111F8CFC30ED11C911107C0760130E0E1
:1019000080E310C0911529F0832FD6019D93382FC5
:101910006D01E4FC0CC0932F7601F2CFD6018D93BC
:1019200031506D013111FACF6701C90ED11C012F61
:10193000060F9A8124FF03C0913309F40150101659
:1019400094F5093008F008E0DE011196A60FB71FE4
:101950004D01841A950ADB01A01BB1098D01EE240B
:10196000FF24EE1AFF0A8EE2B82E64177507ECF01A
:1019700004171507D4F4F401818141505109F6018F
:1019800031964E155F059CF0AFEF8A1A9A0AD60180
:101990008C934F3F540729F4F6013296D6011196E5
:1019A000BC926F01E2CF01E0CFCF80E3E6CF6417B6
:1019B000750729F4953318F081F424FF0EC0D60181
:1019C0008C93832F9E2F2F2F40E2811108C0E30FAD
:1019D000F11D108280E090E01ACF81E3F0CFA92FB3
:1019E000B22F4D9381509A2F2B2FEFCF283008F034
:1019F00027E03327DA01990F311D87FD91600096AA
:101A00006105710539F432602E5F3D9330E32A950C
:101A1000E1F708959F3F30F080387105610509F0C6
:101A20003C5F3C5F3D93913008F08068911DDF93EF
:101A3000CF931F930F93FF92EF92192F987F969554
:101A4000E92F96959695E90FFF27EE52F34E9927C9
:101A50003327EE24FF24A701E7010590089407949B
:101A600028F4360FE71EF81E491F511D660F771F19
:101A7000881F991F0694A1F70590079428F4E70E94
:101A8000F81E491F561FC11D770F881F991F661F1B
:101A90000694A1F70590079428F4F80E491F561FE5
:101AA000C71FD11D880F991F661F771F0694A1F7C6
:101AB0000590079420F4490F561FC71FD81F990F90
:101AC000661F771F881F0694A9F7849110951770D9
:101AD00041F0D695C79557954795F794E7941A9591
:101AE000C1F7E8E7FCE1689415901591359165918F
:101AF000959105907FE27395E118F10A430B560B1F
:101B0000C90BD009C0F7E10CF11E431F561FC91FB6
:101B1000D01D7EF4703311F48A95E6CFE89401501D
:101B200030F0080F0AF40027021708F4202F23953D
:101B3000022F7A3328F079E37D932A95E9F710C0D4
:101B40007D932A9589F6069497956795379517950D
:101B50001794E118F10A430B560BC90BD00998F002
:101B600023957E9173957A3308F070E37C9320136C
:101B7000B8F77E9170617D9330F0839571E37D932A
:101B800070E32A95E1F71124EF90FF900F911F91D8
:101B9000CF91DF91992787FD909508959095809535
:101BA000709561957F4F8F4F9F4F08952F923F9271
:101BB0004F925F926F927F928F929F92AF92BF925D
:101BC000CF92DF92EF92FF920F931F93CF93DF9309
:101BD000CDB7DEB7CA1BDB0B0FB6F894DEBF0FBE66
:101BE000CDBF09942A88398848885F846E847D84B3
:101BF0008C849B84AA84B984C884DF80EE80FD80B5
:101C00000C811B81AA81B981CE0FD11D0FB6F8942A
:101C1000DEBF0FBECDBFED010895F894FFCF089C45
:101C20001A22BDA09220003EBECCD558BE94DEA0A4
:101C3000903EA0A54BB8BE20A932F63E802AAA3815
:101C4000BF223BAAB83F0000000000083C5BF7BE83
:101C5000DAD7AA713D8C77868CBE2EEE93913E7AB0
:101C60009FCEB8BE102437F63EFA3CAA38BF283BB8
:101C7000AAB83F000000000000407A10F35A00A00C
:101C8000724E18090010A5D4E80000E87648170045
:101C900000E40B54020000CA9A3B000000E1F50585
:101CA000000080969800000040420F000000A086CF
:101CB00001000000102700000000E8030000000001
:101CC0006400000000000A000000000001000000A5
:101CD00000002C76D888DC674F0823DFC1DFAE59BF
:101CE000E1B1B796E5E3E453C63AE651997696E852
:101CF000E6C28426EB898C9B62ED407C6FFCEFBCD6
:101D00009C9F40F2BAA56FA5F490055A2AF75C9300
:101D10006B6CF9676DC11BFCE0E40D47FEF520E636
:101D2000B500D0ED902E0300943577050080841E19
:101D3000080000204E0A000000C80C333333330F74
:101D4000986E12831141EF8D2114893BE65516CF11
:101D5000FEE6DB18D1844B381BF77C1D901DA4BB1D
:101D6000E424203284725E228100C9F124ECA1E5D2
:021D70003D270D
:101D72004465736962656C69743A2000414443208A
:101D820076616C75653A20004C6576656C3A200088
:00000001FF
